{
  "address": "0xBd0E54dC92e0be8F6D841059e7fA694de11638B5",
  "abi": [
    {
      "anonymous": false,
      "inputs": [
        {
          "indexed": true,
          "internalType": "address",
          "name": "owner",
          "type": "address"
        },
        {
          "indexed": true,
          "internalType": "address",
          "name": "approved",
          "type": "address"
        },
        {
          "indexed": true,
          "internalType": "uint256",
          "name": "tokenId",
          "type": "uint256"
        }
      ],
      "name": "Approval",
      "type": "event"
    },
    {
      "anonymous": false,
      "inputs": [
        {
          "indexed": true,
          "internalType": "address",
          "name": "owner",
          "type": "address"
        },
        {
          "indexed": true,
          "internalType": "address",
          "name": "operator",
          "type": "address"
        },
        {
          "indexed": false,
          "internalType": "bool",
          "name": "approved",
          "type": "bool"
        }
      ],
      "name": "ApprovalForAll",
      "type": "event"
    },
    {
      "anonymous": false,
      "inputs": [
        {
          "components": [
            {
              "internalType": "string",
              "name": "name",
              "type": "string"
            },
            {
              "internalType": "uint256",
              "name": "gender",
              "type": "uint256"
            },
            {
              "internalType": "uint256",
              "name": "age",
              "type": "uint256"
            },
            {
              "internalType": "uint256",
              "name": "score",
              "type": "uint256"
            },
            {
              "internalType": "bytes",
              "name": "sensitiveInformation",
              "type": "bytes"
            }
          ],
          "indexed": false,
          "internalType": "struct IPerson.PersonInfo",
          "name": "newPerson",
          "type": "tuple"
        },
        {
          "indexed": false,
          "internalType": "address",
          "name": "owner",
          "type": "address"
        },
        {
          "indexed": false,
          "internalType": "uint256",
          "name": "tokenId",
          "type": "uint256"
        }
      ],
      "name": "EditPerson",
      "type": "event"
    },
    {
      "anonymous": false,
      "inputs": [
        {
          "indexed": false,
          "internalType": "uint8",
          "name": "version",
          "type": "uint8"
        }
      ],
      "name": "Initialized",
      "type": "event"
    },
    {
      "anonymous": false,
      "inputs": [
        {
          "indexed": false,
          "internalType": "address",
          "name": "newManager",
          "type": "address"
        }
      ],
      "name": "ManagerChange",
      "type": "event"
    },
    {
      "anonymous": false,
      "inputs": [
        {
          "components": [
            {
              "internalType": "string",
              "name": "name",
              "type": "string"
            },
            {
              "internalType": "uint256",
              "name": "gender",
              "type": "uint256"
            },
            {
              "internalType": "uint256",
              "name": "age",
              "type": "uint256"
            },
            {
              "internalType": "uint256",
              "name": "score",
              "type": "uint256"
            },
            {
              "internalType": "bytes",
              "name": "sensitiveInformation",
              "type": "bytes"
            }
          ],
          "indexed": false,
          "internalType": "struct IPerson.PersonInfo",
          "name": "newPerson",
          "type": "tuple"
        },
        {
          "indexed": false,
          "internalType": "address",
          "name": "owner",
          "type": "address"
        },
        {
          "indexed": false,
          "internalType": "uint256",
          "name": "tokenId",
          "type": "uint256"
        }
      ],
      "name": "NewPerson",
      "type": "event"
    },
    {
      "anonymous": false,
      "inputs": [
        {
          "indexed": false,
          "internalType": "address",
          "name": "owner",
          "type": "address"
        },
        {
          "indexed": false,
          "internalType": "uint256",
          "name": "tokenId",
          "type": "uint256"
        },
        {
          "indexed": false,
          "internalType": "uint256",
          "name": "score",
          "type": "uint256"
        }
      ],
      "name": "ScoreChange",
      "type": "event"
    },
    {
      "anonymous": false,
      "inputs": [
        {
          "indexed": true,
          "internalType": "address",
          "name": "from",
          "type": "address"
        },
        {
          "indexed": true,
          "internalType": "address",
          "name": "to",
          "type": "address"
        },
        {
          "indexed": true,
          "internalType": "uint256",
          "name": "tokenId",
          "type": "uint256"
        }
      ],
      "name": "Transfer",
      "type": "event"
    },
    {
      "inputs": [
        {
          "internalType": "uint256",
          "name": "tokenId",
          "type": "uint256"
        },
        {
          "internalType": "uint256",
          "name": "score",
          "type": "uint256"
        }
      ],
      "name": "addScore",
      "outputs": [],
      "stateMutability": "nonpayable",
      "type": "function"
    },
    {
      "inputs": [
        {
          "internalType": "address",
          "name": "to",
          "type": "address"
        },
        {
          "internalType": "uint256",
          "name": "tokenId",
          "type": "uint256"
        }
      ],
      "name": "approve",
      "outputs": [],
      "stateMutability": "nonpayable",
      "type": "function"
    },
    {
      "inputs": [
        {
          "internalType": "address",
          "name": "owner",
          "type": "address"
        }
      ],
      "name": "balanceOf",
      "outputs": [
        {
          "internalType": "uint256",
          "name": "",
          "type": "uint256"
        }
      ],
      "stateMutability": "view",
      "type": "function"
    },
    {
      "inputs": [
        {
          "internalType": "address",
          "name": "newManager",
          "type": "address"
        }
      ],
      "name": "changeManager",
      "outputs": [],
      "stateMutability": "nonpayable",
      "type": "function"
    },
    {
      "inputs": [
        {
          "internalType": "uint256",
          "name": "tokenId",
          "type": "uint256"
        },
        {
          "components": [
            {
              "internalType": "string",
              "name": "name",
              "type": "string"
            },
            {
              "internalType": "uint256",
              "name": "gender",
              "type": "uint256"
            },
            {
              "internalType": "uint256",
              "name": "age",
              "type": "uint256"
            },
            {
              "internalType": "uint256",
              "name": "score",
              "type": "uint256"
            },
            {
              "internalType": "bytes",
              "name": "sensitiveInformation",
              "type": "bytes"
            }
          ],
          "internalType": "struct IPerson.PersonInfo",
          "name": "p",
          "type": "tuple"
        }
      ],
      "name": "edit",
      "outputs": [],
      "stateMutability": "nonpayable",
      "type": "function"
    },
    {
      "inputs": [
        {
          "internalType": "uint256",
          "name": "tokenId",
          "type": "uint256"
        }
      ],
      "name": "getApproved",
      "outputs": [
        {
          "internalType": "address",
          "name": "",
          "type": "address"
        }
      ],
      "stateMutability": "view",
      "type": "function"
    },
    {
      "inputs": [
        {
          "internalType": "string",
          "name": "_name",
          "type": "string"
        },
        {
          "internalType": "string",
          "name": "_symbol",
          "type": "string"
        },
        {
          "internalType": "address",
          "name": "_managerAddress",
          "type": "address"
        }
      ],
      "name": "initialize",
      "outputs": [],
      "stateMutability": "nonpayable",
      "type": "function"
    },
    {
      "inputs": [
        {
          "internalType": "address",
          "name": "owner",
          "type": "address"
        },
        {
          "internalType": "address",
          "name": "operator",
          "type": "address"
        }
      ],
      "name": "isApprovedForAll",
      "outputs": [
        {
          "internalType": "bool",
          "name": "",
          "type": "bool"
        }
      ],
      "stateMutability": "view",
      "type": "function"
    },
    {
      "inputs": [],
      "name": "latestIndex",
      "outputs": [
        {
          "internalType": "uint256",
          "name": "",
          "type": "uint256"
        }
      ],
      "stateMutability": "view",
      "type": "function"
    },
    {
      "inputs": [],
      "name": "managerAddress",
      "outputs": [
        {
          "internalType": "address",
          "name": "",
          "type": "address"
        }
      ],
      "stateMutability": "view",
      "type": "function"
    },
    {
      "inputs": [
        {
          "internalType": "address",
          "name": "to",
          "type": "address"
        },
        {
          "components": [
            {
              "internalType": "string",
              "name": "name",
              "type": "string"
            },
            {
              "internalType": "uint256",
              "name": "gender",
              "type": "uint256"
            },
            {
              "internalType": "uint256",
              "name": "age",
              "type": "uint256"
            },
            {
              "internalType": "uint256",
              "name": "score",
              "type": "uint256"
            },
            {
              "internalType": "bytes",
              "name": "sensitiveInformation",
              "type": "bytes"
            }
          ],
          "internalType": "struct IPerson.PersonInfo",
          "name": "p",
          "type": "tuple"
        }
      ],
      "name": "mint",
      "outputs": [],
      "stateMutability": "nonpayable",
      "type": "function"
    },
    {
      "inputs": [],
      "name": "name",
      "outputs": [
        {
          "internalType": "string",
          "name": "",
          "type": "string"
        }
      ],
      "stateMutability": "view",
      "type": "function"
    },
    {
      "inputs": [
        {
          "internalType": "uint256",
          "name": "tokenId",
          "type": "uint256"
        }
      ],
      "name": "ownerOf",
      "outputs": [
        {
          "internalType": "address",
          "name": "",
          "type": "address"
        }
      ],
      "stateMutability": "view",
      "type": "function"
    },
    {
      "inputs": [
        {
          "internalType": "uint256",
          "name": "",
          "type": "uint256"
        }
      ],
      "name": "personInfo",
      "outputs": [
        {
          "internalType": "string",
          "name": "name",
          "type": "string"
        },
        {
          "internalType": "uint256",
          "name": "gender",
          "type": "uint256"
        },
        {
          "internalType": "uint256",
          "name": "age",
          "type": "uint256"
        },
        {
          "internalType": "uint256",
          "name": "score",
          "type": "uint256"
        },
        {
          "internalType": "bytes",
          "name": "sensitiveInformation",
          "type": "bytes"
        }
      ],
      "stateMutability": "view",
      "type": "function"
    },
    {
      "inputs": [
        {
          "internalType": "address",
          "name": "from",
          "type": "address"
        },
        {
          "internalType": "address",
          "name": "to",
          "type": "address"
        },
        {
          "internalType": "uint256",
          "name": "tokenId",
          "type": "uint256"
        }
      ],
      "name": "safeTransferFrom",
      "outputs": [],
      "stateMutability": "nonpayable",
      "type": "function"
    },
    {
      "inputs": [
        {
          "internalType": "address",
          "name": "from",
          "type": "address"
        },
        {
          "internalType": "address",
          "name": "to",
          "type": "address"
        },
        {
          "internalType": "uint256",
          "name": "tokenId",
          "type": "uint256"
        },
        {
          "internalType": "bytes",
          "name": "_data",
          "type": "bytes"
        }
      ],
      "name": "safeTransferFrom",
      "outputs": [],
      "stateMutability": "nonpayable",
      "type": "function"
    },
    {
      "inputs": [
        {
          "internalType": "address",
          "name": "operator",
          "type": "address"
        },
        {
          "internalType": "bool",
          "name": "approved",
          "type": "bool"
        }
      ],
      "name": "setApprovalForAll",
      "outputs": [],
      "stateMutability": "nonpayable",
      "type": "function"
    },
    {
      "inputs": [
        {
          "internalType": "uint256",
          "name": "tokenId",
          "type": "uint256"
        },
        {
          "internalType": "uint256",
          "name": "score",
          "type": "uint256"
        }
      ],
      "name": "subtractScore",
      "outputs": [],
      "stateMutability": "nonpayable",
      "type": "function"
    },
    {
      "inputs": [
        {
          "internalType": "bytes4",
          "name": "interfaceId",
          "type": "bytes4"
        }
      ],
      "name": "supportsInterface",
      "outputs": [
        {
          "internalType": "bool",
          "name": "",
          "type": "bool"
        }
      ],
      "stateMutability": "view",
      "type": "function"
    },
    {
      "inputs": [],
      "name": "symbol",
      "outputs": [
        {
          "internalType": "string",
          "name": "",
          "type": "string"
        }
      ],
      "stateMutability": "view",
      "type": "function"
    },
    {
      "inputs": [
        {
          "internalType": "uint256",
          "name": "tokenId",
          "type": "uint256"
        }
      ],
      "name": "tokenURI",
      "outputs": [
        {
          "internalType": "string",
          "name": "",
          "type": "string"
        }
      ],
      "stateMutability": "view",
      "type": "function"
    },
    {
      "inputs": [
        {
          "internalType": "address",
          "name": "from",
          "type": "address"
        },
        {
          "internalType": "address",
          "name": "to",
          "type": "address"
        },
        {
          "internalType": "uint256",
          "name": "tokenId",
          "type": "uint256"
        }
      ],
      "name": "transferFrom",
      "outputs": [],
      "stateMutability": "nonpayable",
      "type": "function"
    }
  ],
  "transactionHash": "0x2702f686fdac55bef580c86b0f08864fbe6f770cd31028f7e680bb402c9e76f0",
  "args": [],
  "numDeployments": 2,
  "solcInputHash": "8dbd359f168a0ad96b5fcb0bc3411266",
  "bytecode": "0x608060405234801561001057600080fd5b506124d0806100206000396000f3fe608060405234801561001057600080fd5b50600436106101825760003560e01c806370a08231116100d8578063a3fbbaae1161008c578063cf73a1bc11610066578063cf73a1bc1461032b578063ddcbf7941461033e578063e985e9c51461035157600080fd5b8063a3fbbaae146102f2578063b88d4fde14610305578063c87b56dd1461031857600080fd5b806395d89b41116100bd57806395d89b41146102c45780639c57511b146102cc578063a22cb465146102df57600080fd5b806370a082311461028d5780638f917719146102a057600080fd5b806323b872dd1161013a5780634be21c8e116101145780634be21c8e14610250578063578f2aa0146102635780636352211e1461027a57600080fd5b806323b872dd14610217578063328a49801461022a57806342842e0e1461023d57600080fd5b8063077f224a1161016b578063077f224a146101c4578063081812fc146101d9578063095ea7b31461020457600080fd5b806301ffc9a71461018757806306fdde03146101af575b600080fd5b61019a610195366004611cc5565b61038d565b60405190151581526020015b60405180910390f35b6101b76103df565b6040516101a69190611d3a565b6101d76101d2366004611e05565b610471565b005b6101ec6101e7366004611e7d565b610507565b6040516001600160a01b0390911681526020016101a6565b6101d7610212366004611e96565b6105a1565b6101d7610225366004611ec2565b6106b6565b6101d7610238366004611fab565b61073d565b6101d761024b366004611ec2565b6108c0565b6101d761025e366004611ffb565b6108db565b61026c60975481565b6040519081526020016101a6565b6101ec610288366004611e7d565b610a46565b61026c61029b36600461202c565b610ad1565b6102b36102ae366004611e7d565b610b6b565b6040516101a6959493929190612049565b6101b7610ca9565b6101d76102da36600461208c565b610cb8565b6101d76102ed3660046120ae565b610dfe565b6101d761030036600461202c565b610e0d565b6101d76103133660046120ec565b610f29565b6101b7610326366004611e7d565b610fb1565b6098546101ec906001600160a01b031681565b6101d761034c36600461208c565b6110cc565b61019a61035f366004612158565b6001600160a01b039182166000908152606a6020908152604080832093909416825291909152205460ff1690565b60006001600160e01b031982166380ac58cd60e01b14806103be57506001600160e01b03198216635b5e139f60e01b145b806103d957506301ffc9a760e01b6001600160e01b03198316145b92915050565b6060606580546103ee90612186565b80601f016020809104026020016040519081016040528092919081815260200182805461041a90612186565b80156104675780601f1061043c57610100808354040283529160200191610467565b820191906000526020600020905b81548152906001019060200180831161044a57829003601f168201915b5050505050905090565b600061047d60016111b7565b90508015610495576000805461ff0019166101001790555b61049f84846112cd565b609880546001600160a01b0319166001600160a01b0384161790558015610501576000805461ff0019169055604051600181527f7f26b83ff96e1f2b6a682f133852f6798a09c465da95921460cefb3847402498906020015b60405180910390a15b50505050565b6000818152606760205260408120546001600160a01b03166105855760405162461bcd60e51b815260206004820152602c60248201527f4552433732313a20617070726f76656420717565727920666f72206e6f6e657860448201526b34b9ba32b73a103a37b5b2b760a11b60648201526084015b60405180910390fd5b506000908152606960205260409020546001600160a01b031690565b60006105ac82610a46565b9050806001600160a01b0316836001600160a01b0316036106195760405162461bcd60e51b815260206004820152602160248201527f4552433732313a20617070726f76616c20746f2063757272656e74206f776e656044820152603960f91b606482015260840161057c565b336001600160a01b03821614806106355750610635813361035f565b6106a75760405162461bcd60e51b815260206004820152603860248201527f4552433732313a20617070726f76652063616c6c6572206973206e6f74206f7760448201527f6e6572206e6f7220617070726f76656420666f7220616c6c0000000000000000606482015260840161057c565b6106b18383611342565b505050565b6106c033826113b0565b6107325760405162461bcd60e51b815260206004820152603160248201527f4552433732313a207472616e736665722063616c6c6572206973206e6f74206f60448201527f776e6572206e6f7220617070726f766564000000000000000000000000000000606482015260840161057c565b6106b18383836114a7565b609860009054906101000a90046001600160a01b03166001600160a01b0316638da5cb5b6040518163ffffffff1660e01b8152600401602060405180830381865afa158015610790573d6000803e3d6000fd5b505050506040513d601f19601f820116820180604052508101906107b491906121c0565b6001600160a01b0316336001600160a01b0316146108055760405162461bcd60e51b815260206004820152600e60248201526d24b73b30b634b21039b2b73232b960911b604482015260640161057c565b60978054906000610815836121f3565b909155505060975460009081526099602052604090208151829190819061083c908261225a565b506020820151600182015560408201516002820155606082015160038201556080820151600482019061086f908261225a565b5090505061087f82609754611666565b7ff721413e75258f936d1753f18e36d766b01427819f8c2a6c6db28ebe5ac2cbae81836097546040516108b49392919061231a565b60405180910390a15050565b6106b183838360405180602001604052806000815250610f29565b609860009054906101000a90046001600160a01b03166001600160a01b0316638da5cb5b6040518163ffffffff1660e01b8152600401602060405180830381865afa15801561092e573d6000803e3d6000fd5b505050506040513d601f19601f8201168201806040525081019061095291906121c0565b6001600160a01b0316336001600160a01b0316146109a35760405162461bcd60e51b815260206004820152600e60248201526d24b73b30b634b21039b2b73232b960911b604482015260640161057c565b6000828152609960205260409020815182919081906109c2908261225a565b50602082015160018201556040820151600282015560608201516003820155608082015160048201906109f5908261225a565b509050506000610a0483610a46565b90507f9fecefdf304b34cf5b8d80a31d648072807b1d9619fc0dbbde628b04427d256a828285604051610a399392919061231a565b60405180910390a1505050565b6000818152606760205260408120546001600160a01b0316806103d95760405162461bcd60e51b815260206004820152602960248201527f4552433732313a206f776e657220717565727920666f72206e6f6e657869737460448201527f656e7420746f6b656e0000000000000000000000000000000000000000000000606482015260840161057c565b60006001600160a01b038216610b4f5760405162461bcd60e51b815260206004820152602a60248201527f4552433732313a2062616c616e636520717565727920666f7220746865207a6560448201527f726f206164647265737300000000000000000000000000000000000000000000606482015260840161057c565b506001600160a01b031660009081526068602052604090205490565b609960205260009081526040902080548190610b8690612186565b80601f0160208091040260200160405190810160405280929190818152602001828054610bb290612186565b8015610bff5780601f10610bd457610100808354040283529160200191610bff565b820191906000526020600020905b815481529060010190602001808311610be257829003601f168201915b505050505090806001015490806002015490806003015490806004018054610c2690612186565b80601f0160208091040260200160405190810160405280929190818152602001828054610c5290612186565b8015610c9f5780601f10610c7457610100808354040283529160200191610c9f565b820191906000526020600020905b815481529060010190602001808311610c8257829003601f168201915b5050505050905085565b6060606680546103ee90612186565b609860009054906101000a90046001600160a01b03166001600160a01b0316638da5cb5b6040518163ffffffff1660e01b8152600401602060405180830381865afa158015610d0b573d6000803e3d6000fd5b505050506040513d601f19601f82011682018060405250810190610d2f91906121c0565b6001600160a01b0316336001600160a01b031614610d805760405162461bcd60e51b815260206004820152600e60248201526d24b73b30b634b21039b2b73232b960911b604482015260640161057c565b600082815260996020526040812060038101805491928492610da390849061238f565b9091555060009050610db484610a46565b604080516001600160a01b0383168152602081018790529081018590529091507f935e6449f199f52bc97baa052ab466f990d2b987668a1946b623d830ca5f03d6906060016104f8565b610e093383836117b4565b5050565b609860009054906101000a90046001600160a01b03166001600160a01b0316638da5cb5b6040518163ffffffff1660e01b8152600401602060405180830381865afa158015610e60573d6000803e3d6000fd5b505050506040513d601f19601f82011682018060405250810190610e8491906121c0565b6001600160a01b0316336001600160a01b031614610ed55760405162461bcd60e51b815260206004820152600e60248201526d24b73b30b634b21039b2b73232b960911b604482015260640161057c565b609880546001600160a01b0319166001600160a01b0383169081179091556040519081527f1d6ff4ed7d3f88a1e772b88c015ffdd0e3a6b0891780d6742b969cc1325f03349060200160405180910390a150565b610f3333836113b0565b610fa55760405162461bcd60e51b815260206004820152603160248201527f4552433732313a207472616e736665722063616c6c6572206973206e6f74206f60448201527f776e6572206e6f7220617070726f766564000000000000000000000000000000606482015260840161057c565b61050184848484611882565b6000818152606760205260409020546060906001600160a01b031661103e5760405162461bcd60e51b815260206004820152602f60248201527f4552433732314d657461646174613a2055524920717565727920666f72206e6f60448201527f6e6578697374656e7420746f6b656e0000000000000000000000000000000000606482015260840161057c565b600061107a60408051808201909152601d81527f687474703a2f2f6c6f63616c686f73743a333030302f706572736f6e2f000000602082015290565b9050600081511161109a57604051806020016040528060008152506110c5565b806110a48461190b565b6040516020016110b59291906123a6565b6040516020818303038152906040525b9392505050565b609860009054906101000a90046001600160a01b03166001600160a01b0316638da5cb5b6040518163ffffffff1660e01b8152600401602060405180830381865afa15801561111f573d6000803e3d6000fd5b505050506040513d601f19601f8201168201806040525081019061114391906121c0565b6001600160a01b0316336001600160a01b0316146111945760405162461bcd60e51b815260206004820152600e60248201526d24b73b30b634b21039b2b73232b960911b604482015260640161057c565b600082815260996020526040812060038101805491928492610da39084906123d5565b60008054610100900460ff1615611245578160ff1660011480156111da5750303b155b61123d5760405162461bcd60e51b815260206004820152602e60248201527f496e697469616c697a61626c653a20636f6e747261637420697320616c72656160448201526d191e481a5b9a5d1a585b1a5e995960921b606482015260840161057c565b506000919050565b60005460ff8084169116106112b35760405162461bcd60e51b815260206004820152602e60248201527f496e697469616c697a61626c653a20636f6e747261637420697320616c72656160448201526d191e481a5b9a5d1a585b1a5e995960921b606482015260840161057c565b506000805460ff191660ff92909216919091179055600190565b600054610100900460ff166113385760405162461bcd60e51b815260206004820152602b60248201527f496e697469616c697a61626c653a20636f6e7472616374206973206e6f74206960448201526a6e697469616c697a696e6760a81b606482015260840161057c565b610e098282611a24565b600081815260696020526040902080546001600160a01b0319166001600160a01b038416908117909155819061137782610a46565b6001600160a01b03167f8c5be1e5ebec7d5bd14f71427d1e84f3dd0314c0f7b2291e5b200ac8c7c3b92560405160405180910390a45050565b6000818152606760205260408120546001600160a01b03166114295760405162461bcd60e51b815260206004820152602c60248201527f4552433732313a206f70657261746f7220717565727920666f72206e6f6e657860448201526b34b9ba32b73a103a37b5b2b760a11b606482015260840161057c565b600061143483610a46565b9050806001600160a01b0316846001600160a01b0316148061147b57506001600160a01b038082166000908152606a602090815260408083209388168352929052205460ff165b8061149f5750836001600160a01b031661149484610507565b6001600160a01b0316145b949350505050565b826001600160a01b03166114ba82610a46565b6001600160a01b0316146115365760405162461bcd60e51b815260206004820152602560248201527f4552433732313a207472616e736665722066726f6d20696e636f72726563742060448201527f6f776e6572000000000000000000000000000000000000000000000000000000606482015260840161057c565b6001600160a01b0382166115985760405162461bcd60e51b8152602060048201526024808201527f4552433732313a207472616e7366657220746f20746865207a65726f206164646044820152637265737360e01b606482015260840161057c565b6115a3838383611aa8565b6115ae600082611342565b6001600160a01b03831660009081526068602052604081208054600192906115d790849061238f565b90915550506001600160a01b03821660009081526068602052604081208054600192906116059084906123d5565b909155505060008181526067602052604080822080546001600160a01b0319166001600160a01b0386811691821790925591518493918716917fddf252ad1be2c89b69c2b068fc378daa952ba7f163c4a11628f55a4df523b3ef91a4505050565b6001600160a01b0382166116bc5760405162461bcd60e51b815260206004820181905260248201527f4552433732313a206d696e7420746f20746865207a65726f2061646472657373604482015260640161057c565b6000818152606760205260409020546001600160a01b0316156117215760405162461bcd60e51b815260206004820152601c60248201527f4552433732313a20746f6b656e20616c7265616479206d696e74656400000000604482015260640161057c565b61172d60008383611aa8565b6001600160a01b03821660009081526068602052604081208054600192906117569084906123d5565b909155505060008181526067602052604080822080546001600160a01b0319166001600160a01b03861690811790915590518392907fddf252ad1be2c89b69c2b068fc378daa952ba7f163c4a11628f55a4df523b3ef908290a45050565b816001600160a01b0316836001600160a01b0316036118155760405162461bcd60e51b815260206004820152601960248201527f4552433732313a20617070726f766520746f2063616c6c657200000000000000604482015260640161057c565b6001600160a01b038381166000818152606a6020908152604080832094871680845294825291829020805460ff191686151590811790915591519182527f17307eab39ab6107e8899845ad3d59bd9653f200f220920489ca2b5937696c31910160405180910390a3505050565b61188d8484846114a7565b61189984848484611b55565b6105015760405162461bcd60e51b815260206004820152603260248201527f4552433732313a207472616e7366657220746f206e6f6e20455243373231526560448201527f63656976657220696d706c656d656e7465720000000000000000000000000000606482015260840161057c565b6060816000036119325750506040805180820190915260018152600360fc1b602082015290565b8160005b811561195c5780611946816121f3565b91506119559050600a83612403565b9150611936565b60008167ffffffffffffffff81111561197757611977611d4d565b6040519080825280601f01601f1916602001820160405280156119a1576020820181803683370190505b5090505b841561149f576119b660018361238f565b91506119c3600a86612417565b6119ce9060306123d5565b60f81b8183815181106119e3576119e361242b565b60200101907effffffffffffffffffffffffffffffffffffffffffffffffffffffffffffff1916908160001a905350611a1d600a86612403565b94506119a5565b600054610100900460ff16611a8f5760405162461bcd60e51b815260206004820152602b60248201527f496e697469616c697a61626c653a20636f6e7472616374206973206e6f74206960448201526a6e697469616c697a696e6760a81b606482015260840161057c565b6065611a9b838261225a565b5060666106b1828261225a565b6001600160a01b03831615611aff5760405162461bcd60e51b815260206004820152600f60248201527f43616e6e6f74207472616e736665720000000000000000000000000000000000604482015260640161057c565b611b0882610ad1565b156106b15760405162461bcd60e51b815260206004820152601960248201527f456163682075736572206d75737420686176652031204e465400000000000000604482015260640161057c565b60006001600160a01b0384163b15611ca157604051630a85bd0160e11b81526001600160a01b0385169063150b7a0290611b99903390899088908890600401612441565b6020604051808303816000875af1925050508015611bd4575060408051601f3d908101601f19168201909252611bd19181019061247d565b60015b611c87573d808015611c02576040519150601f19603f3d011682016040523d82523d6000602084013e611c07565b606091505b508051600003611c7f5760405162461bcd60e51b815260206004820152603260248201527f4552433732313a207472616e7366657220746f206e6f6e20455243373231526560448201527f63656976657220696d706c656d656e7465720000000000000000000000000000606482015260840161057c565b805181602001fd5b6001600160e01b031916630a85bd0160e11b14905061149f565b506001949350505050565b6001600160e01b031981168114611cc257600080fd5b50565b600060208284031215611cd757600080fd5b81356110c581611cac565b60005b83811015611cfd578181015183820152602001611ce5565b838111156105015750506000910152565b60008151808452611d26816020860160208601611ce2565b601f01601f19169290920160200192915050565b6020815260006110c56020830184611d0e565b634e487b7160e01b600052604160045260246000fd5b600082601f830112611d7457600080fd5b813567ffffffffffffffff80821115611d8f57611d8f611d4d565b604051601f8301601f19908116603f01168101908282118183101715611db757611db7611d4d565b81604052838152866020858801011115611dd057600080fd5b836020870160208301376000602085830101528094505050505092915050565b6001600160a01b0381168114611cc257600080fd5b600080600060608486031215611e1a57600080fd5b833567ffffffffffffffff80821115611e3257600080fd5b611e3e87838801611d63565b94506020860135915080821115611e5457600080fd5b50611e6186828701611d63565b9250506040840135611e7281611df0565b809150509250925092565b600060208284031215611e8f57600080fd5b5035919050565b60008060408385031215611ea957600080fd5b8235611eb481611df0565b946020939093013593505050565b600080600060608486031215611ed757600080fd5b8335611ee281611df0565b92506020840135611ef281611df0565b929592945050506040919091013590565b600060a08284031215611f1557600080fd5b60405160a0810167ffffffffffffffff8282108183111715611f3957611f39611d4d565b816040528293508435915080821115611f5157600080fd5b611f5d86838701611d63565b83526020850135602084015260408501356040840152606085013560608401526080850135915080821115611f9157600080fd5b50611f9e85828601611d63565b6080830152505092915050565b60008060408385031215611fbe57600080fd5b8235611fc981611df0565b9150602083013567ffffffffffffffff811115611fe557600080fd5b611ff185828601611f03565b9150509250929050565b6000806040838503121561200e57600080fd5b82359150602083013567ffffffffffffffff811115611fe557600080fd5b60006020828403121561203e57600080fd5b81356110c581611df0565b60a08152600061205c60a0830188611d0e565b86602084015285604084015284606084015282810360808401526120808185611d0e565b98975050505050505050565b6000806040838503121561209f57600080fd5b50508035926020909101359150565b600080604083850312156120c157600080fd5b82356120cc81611df0565b9150602083013580151581146120e157600080fd5b809150509250929050565b6000806000806080858703121561210257600080fd5b843561210d81611df0565b9350602085013561211d81611df0565b925060408501359150606085013567ffffffffffffffff81111561214057600080fd5b61214c87828801611d63565b91505092959194509250565b6000806040838503121561216b57600080fd5b823561217681611df0565b915060208301356120e181611df0565b600181811c9082168061219a57607f821691505b6020821081036121ba57634e487b7160e01b600052602260045260246000fd5b50919050565b6000602082840312156121d257600080fd5b81516110c581611df0565b634e487b7160e01b600052601160045260246000fd5b600060018201612205576122056121dd565b5060010190565b601f8211156106b157600081815260208120601f850160051c810160208610156122335750805b601f850160051c820191505b818110156122525782815560010161223f565b505050505050565b815167ffffffffffffffff81111561227457612274611d4d565b612288816122828454612186565b8461220c565b602080601f8311600181146122bd57600084156122a55750858301515b600019600386901b1c1916600185901b178555612252565b600085815260208120601f198616915b828110156122ec578886015182559484019460019091019084016122cd565b508582101561230a5787850151600019600388901b60f8161c191681555b5050505050600190811b01905550565b606081526000845160a06060840152612337610100840182611d0e565b905060208601516080840152604086015160a0840152606086015160c08401526080860151605f198483030160e08501526123728282611d0e565b6001600160a01b0396909616602085015250505060400152919050565b6000828210156123a1576123a16121dd565b500390565b600083516123b8818460208801611ce2565b8351908301906123cc818360208801611ce2565b01949350505050565b600082198211156123e8576123e86121dd565b500190565b634e487b7160e01b600052601260045260246000fd5b600082612412576124126123ed565b500490565b600082612426576124266123ed565b500690565b634e487b7160e01b600052603260045260246000fd5b60006001600160a01b038087168352808616602084015250836040830152608060608301526124736080830184611d0e565b9695505050505050565b60006020828403121561248f57600080fd5b81516110c581611cac56fea2646970667358221220e7b10e7dccf27afe07232c00b9b8aaf66be6441edab7377dd7775f58126db5c664736f6c634300080f0033",
  "devdoc": {
    "kind": "dev",
    "methods": {
      "approve(address,uint256)": {
        "details": "See {IERC721-approve}."
      },
      "balanceOf(address)": {
        "details": "See {IERC721-balanceOf}."
      },
      "getApproved(uint256)": {
        "details": "See {IERC721-getApproved}."
      },
      "isApprovedForAll(address,address)": {
        "details": "See {IERC721-isApprovedForAll}."
      },
      "name()": {
        "details": "See {IERC721Metadata-name}."
      },
      "ownerOf(uint256)": {
        "details": "See {IERC721-ownerOf}."
      },
      "safeTransferFrom(address,address,uint256)": {
        "details": "See {IERC721-safeTransferFrom}."
      },
      "safeTransferFrom(address,address,uint256,bytes)": {
        "details": "See {IERC721-safeTransferFrom}."
      },
      "setApprovalForAll(address,bool)": {
        "details": "See {IERC721-setApprovalForAll}."
      },
      "supportsInterface(bytes4)": {
        "details": "See {IERC165-supportsInterface}."
      },
      "symbol()": {
        "details": "See {IERC721Metadata-symbol}."
      },
      "tokenURI(uint256)": {
        "details": "See {IERC721Metadata-tokenURI}."
      },
      "transferFrom(address,address,uint256)": {
        "details": "See {IERC721-transferFrom}."
      }
    },
    "version": 1
  },
  "userdoc": {
    "kind": "user",
    "methods": {},
    "version": 1
  },
  "storageLayout": {
    "storage": [
      {
        "astId": 130,
        "contract": "contracts/Person.sol:Person",
        "label": "_initialized",
        "offset": 0,
        "slot": "0",
        "type": "t_uint8"
      },
      {
        "astId": 133,
        "contract": "contracts/Person.sol:Person",
        "label": "_initializing",
        "offset": 1,
        "slot": "0",
        "type": "t_bool"
      },
      {
        "astId": 1601,
        "contract": "contracts/Person.sol:Person",
        "label": "__gap",
        "offset": 0,
        "slot": "1",
        "type": "t_array(t_uint256)50_storage"
      },
      {
        "astId": 1848,
        "contract": "contracts/Person.sol:Person",
        "label": "__gap",
        "offset": 0,
        "slot": "51",
        "type": "t_array(t_uint256)50_storage"
      },
      {
        "astId": 294,
        "contract": "contracts/Person.sol:Person",
        "label": "_name",
        "offset": 0,
        "slot": "101",
        "type": "t_string_storage"
      },
      {
        "astId": 296,
        "contract": "contracts/Person.sol:Person",
        "label": "_symbol",
        "offset": 0,
        "slot": "102",
        "type": "t_string_storage"
      },
      {
        "astId": 300,
        "contract": "contracts/Person.sol:Person",
        "label": "_owners",
        "offset": 0,
        "slot": "103",
        "type": "t_mapping(t_uint256,t_address)"
      },
      {
        "astId": 304,
        "contract": "contracts/Person.sol:Person",
        "label": "_balances",
        "offset": 0,
        "slot": "104",
        "type": "t_mapping(t_address,t_uint256)"
      },
      {
        "astId": 308,
        "contract": "contracts/Person.sol:Person",
        "label": "_tokenApprovals",
        "offset": 0,
        "slot": "105",
        "type": "t_mapping(t_uint256,t_address)"
      },
      {
        "astId": 314,
        "contract": "contracts/Person.sol:Person",
        "label": "_operatorApprovals",
        "offset": 0,
        "slot": "106",
        "type": "t_mapping(t_address,t_mapping(t_address,t_bool))"
      },
      {
        "astId": 1155,
        "contract": "contracts/Person.sol:Person",
        "label": "__gap",
        "offset": 0,
        "slot": "107",
        "type": "t_array(t_uint256)44_storage"
      },
      {
        "astId": 2051,
        "contract": "contracts/Person.sol:Person",
        "label": "latestIndex",
        "offset": 0,
        "slot": "151",
        "type": "t_uint256"
      },
      {
        "astId": 2053,
        "contract": "contracts/Person.sol:Person",
        "label": "managerAddress",
        "offset": 0,
        "slot": "152",
        "type": "t_address"
      },
      {
        "astId": 2058,
        "contract": "contracts/Person.sol:Person",
        "label": "personInfo",
        "offset": 0,
        "slot": "153",
        "type": "t_mapping(t_uint256,t_struct(PersonInfo)2361_storage)"
      }
    ],
    "types": {
      "t_address": {
        "encoding": "inplace",
        "label": "address",
        "numberOfBytes": "20"
      },
      "t_array(t_uint256)44_storage": {
        "base": "t_uint256",
        "encoding": "inplace",
        "label": "uint256[44]",
        "numberOfBytes": "1408"
      },
      "t_array(t_uint256)50_storage": {
        "base": "t_uint256",
        "encoding": "inplace",
        "label": "uint256[50]",
        "numberOfBytes": "1600"
      },
      "t_bool": {
        "encoding": "inplace",
        "label": "bool",
        "numberOfBytes": "1"
      },
      "t_bytes_storage": {
        "encoding": "bytes",
        "label": "bytes",
        "numberOfBytes": "32"
      },
      "t_mapping(t_address,t_bool)": {
        "encoding": "mapping",
        "key": "t_address",
        "label": "mapping(address => bool)",
        "numberOfBytes": "32",
        "value": "t_bool"
      },
      "t_mapping(t_address,t_mapping(t_address,t_bool))": {
        "encoding": "mapping",
        "key": "t_address",
        "label": "mapping(address => mapping(address => bool))",
        "numberOfBytes": "32",
        "value": "t_mapping(t_address,t_bool)"
      },
      "t_mapping(t_address,t_uint256)": {
        "encoding": "mapping",
        "key": "t_address",
        "label": "mapping(address => uint256)",
        "numberOfBytes": "32",
        "value": "t_uint256"
      },
      "t_mapping(t_uint256,t_address)": {
        "encoding": "mapping",
        "key": "t_uint256",
        "label": "mapping(uint256 => address)",
        "numberOfBytes": "32",
        "value": "t_address"
      },
      "t_mapping(t_uint256,t_struct(PersonInfo)2361_storage)": {
        "encoding": "mapping",
        "key": "t_uint256",
        "label": "mapping(uint256 => struct IPerson.PersonInfo)",
        "numberOfBytes": "32",
        "value": "t_struct(PersonInfo)2361_storage"
      },
      "t_string_storage": {
        "encoding": "bytes",
        "label": "string",
        "numberOfBytes": "32"
      },
      "t_struct(PersonInfo)2361_storage": {
        "encoding": "inplace",
        "label": "struct IPerson.PersonInfo",
        "members": [
          {
            "astId": 2352,
            "contract": "contracts/Person.sol:Person",
            "label": "name",
            "offset": 0,
            "slot": "0",
            "type": "t_string_storage"
          },
          {
            "astId": 2354,
            "contract": "contracts/Person.sol:Person",
            "label": "gender",
            "offset": 0,
            "slot": "1",
            "type": "t_uint256"
          },
          {
            "astId": 2356,
            "contract": "contracts/Person.sol:Person",
            "label": "age",
            "offset": 0,
            "slot": "2",
            "type": "t_uint256"
          },
          {
            "astId": 2358,
            "contract": "contracts/Person.sol:Person",
            "label": "score",
            "offset": 0,
            "slot": "3",
            "type": "t_uint256"
          },
          {
            "astId": 2360,
            "contract": "contracts/Person.sol:Person",
            "label": "sensitiveInformation",
            "offset": 0,
            "slot": "4",
            "type": "t_bytes_storage"
          }
        ],
        "numberOfBytes": "160"
      },
      "t_uint256": {
        "encoding": "inplace",
        "label": "uint256",
        "numberOfBytes": "32"
      },
      "t_uint8": {
        "encoding": "inplace",
        "label": "uint8",
        "numberOfBytes": "1"
      }
    }
  }
}