{
  "address": "0x5fF8E94c5e4D64579dbCDD485Cd1942F1BC99643",
  "abi": [
    {
      "anonymous": false,
      "inputs": [
        {
          "indexed": true,
          "internalType": "address",
          "name": "owner",
          "type": "address"
        },
        {
          "indexed": true,
          "internalType": "address",
          "name": "approved",
          "type": "address"
        },
        {
          "indexed": true,
          "internalType": "uint256",
          "name": "tokenId",
          "type": "uint256"
        }
      ],
      "name": "Approval",
      "type": "event"
    },
    {
      "anonymous": false,
      "inputs": [
        {
          "indexed": true,
          "internalType": "address",
          "name": "owner",
          "type": "address"
        },
        {
          "indexed": true,
          "internalType": "address",
          "name": "operator",
          "type": "address"
        },
        {
          "indexed": false,
          "internalType": "bool",
          "name": "approved",
          "type": "bool"
        }
      ],
      "name": "ApprovalForAll",
      "type": "event"
    },
    {
      "anonymous": false,
      "inputs": [
        {
          "components": [
            {
              "internalType": "string",
              "name": "name",
              "type": "string"
            },
            {
              "internalType": "uint256",
              "name": "gender",
              "type": "uint256"
            },
            {
              "internalType": "uint256",
              "name": "age",
              "type": "uint256"
            },
            {
              "internalType": "uint256",
              "name": "score",
              "type": "uint256"
            },
            {
              "internalType": "bytes",
              "name": "sensitiveInformation",
              "type": "bytes"
            }
          ],
          "indexed": false,
          "internalType": "struct IPerson.PersonInfo",
          "name": "newPerson",
          "type": "tuple"
        },
        {
          "indexed": false,
          "internalType": "address",
          "name": "owner",
          "type": "address"
        },
        {
          "indexed": false,
          "internalType": "uint256",
          "name": "tokenId",
          "type": "uint256"
        }
      ],
      "name": "EditPerson",
      "type": "event"
    },
    {
      "anonymous": false,
      "inputs": [
        {
          "indexed": false,
          "internalType": "uint8",
          "name": "version",
          "type": "uint8"
        }
      ],
      "name": "Initialized",
      "type": "event"
    },
    {
      "anonymous": false,
      "inputs": [
        {
          "indexed": false,
          "internalType": "address",
          "name": "newManager",
          "type": "address"
        }
      ],
      "name": "ManagerChange",
      "type": "event"
    },
    {
      "anonymous": false,
      "inputs": [
        {
          "components": [
            {
              "internalType": "string",
              "name": "name",
              "type": "string"
            },
            {
              "internalType": "uint256",
              "name": "gender",
              "type": "uint256"
            },
            {
              "internalType": "uint256",
              "name": "age",
              "type": "uint256"
            },
            {
              "internalType": "uint256",
              "name": "score",
              "type": "uint256"
            },
            {
              "internalType": "bytes",
              "name": "sensitiveInformation",
              "type": "bytes"
            }
          ],
          "indexed": false,
          "internalType": "struct IPerson.PersonInfo",
          "name": "newPerson",
          "type": "tuple"
        },
        {
          "indexed": false,
          "internalType": "address",
          "name": "owner",
          "type": "address"
        },
        {
          "indexed": false,
          "internalType": "uint256",
          "name": "tokenId",
          "type": "uint256"
        }
      ],
      "name": "NewPerson",
      "type": "event"
    },
    {
      "anonymous": false,
      "inputs": [
        {
          "indexed": false,
          "internalType": "address",
          "name": "owner",
          "type": "address"
        },
        {
          "indexed": false,
          "internalType": "uint256",
          "name": "tokenId",
          "type": "uint256"
        },
        {
          "indexed": false,
          "internalType": "uint256",
          "name": "sId",
          "type": "uint256"
        },
        {
          "indexed": false,
          "internalType": "uint256",
          "name": "score",
          "type": "uint256"
        }
      ],
      "name": "ScoreChange",
      "type": "event"
    },
    {
      "anonymous": false,
      "inputs": [
        {
          "indexed": true,
          "internalType": "address",
          "name": "from",
          "type": "address"
        },
        {
          "indexed": true,
          "internalType": "address",
          "name": "to",
          "type": "address"
        },
        {
          "indexed": true,
          "internalType": "uint256",
          "name": "tokenId",
          "type": "uint256"
        }
      ],
      "name": "Transfer",
      "type": "event"
    },
    {
      "inputs": [
        {
          "internalType": "uint256",
          "name": "tokenId",
          "type": "uint256"
        },
        {
          "internalType": "uint256",
          "name": "sId",
          "type": "uint256"
        },
        {
          "internalType": "uint256",
          "name": "score",
          "type": "uint256"
        }
      ],
      "name": "addScore",
      "outputs": [],
      "stateMutability": "nonpayable",
      "type": "function"
    },
    {
      "inputs": [
        {
          "internalType": "address",
          "name": "to",
          "type": "address"
        },
        {
          "internalType": "uint256",
          "name": "tokenId",
          "type": "uint256"
        }
      ],
      "name": "approve",
      "outputs": [],
      "stateMutability": "nonpayable",
      "type": "function"
    },
    {
      "inputs": [
        {
          "internalType": "address",
          "name": "owner",
          "type": "address"
        }
      ],
      "name": "balanceOf",
      "outputs": [
        {
          "internalType": "uint256",
          "name": "",
          "type": "uint256"
        }
      ],
      "stateMutability": "view",
      "type": "function"
    },
    {
      "inputs": [
        {
          "internalType": "address",
          "name": "newManager",
          "type": "address"
        }
      ],
      "name": "changeManager",
      "outputs": [],
      "stateMutability": "nonpayable",
      "type": "function"
    },
    {
      "inputs": [
        {
          "internalType": "uint256",
          "name": "tokenId",
          "type": "uint256"
        },
        {
          "components": [
            {
              "internalType": "string",
              "name": "name",
              "type": "string"
            },
            {
              "internalType": "uint256",
              "name": "gender",
              "type": "uint256"
            },
            {
              "internalType": "uint256",
              "name": "age",
              "type": "uint256"
            },
            {
              "internalType": "uint256",
              "name": "score",
              "type": "uint256"
            },
            {
              "internalType": "bytes",
              "name": "sensitiveInformation",
              "type": "bytes"
            }
          ],
          "internalType": "struct IPerson.PersonInfo",
          "name": "p",
          "type": "tuple"
        }
      ],
      "name": "edit",
      "outputs": [],
      "stateMutability": "nonpayable",
      "type": "function"
    },
    {
      "inputs": [
        {
          "internalType": "uint256",
          "name": "tokenId",
          "type": "uint256"
        }
      ],
      "name": "getApproved",
      "outputs": [
        {
          "internalType": "address",
          "name": "",
          "type": "address"
        }
      ],
      "stateMutability": "view",
      "type": "function"
    },
    {
      "inputs": [
        {
          "internalType": "string",
          "name": "_name",
          "type": "string"
        },
        {
          "internalType": "string",
          "name": "_symbol",
          "type": "string"
        },
        {
          "internalType": "address",
          "name": "_managerAddress",
          "type": "address"
        }
      ],
      "name": "initialize",
      "outputs": [],
      "stateMutability": "nonpayable",
      "type": "function"
    },
    {
      "inputs": [
        {
          "internalType": "address",
          "name": "owner",
          "type": "address"
        },
        {
          "internalType": "address",
          "name": "operator",
          "type": "address"
        }
      ],
      "name": "isApprovedForAll",
      "outputs": [
        {
          "internalType": "bool",
          "name": "",
          "type": "bool"
        }
      ],
      "stateMutability": "view",
      "type": "function"
    },
    {
      "inputs": [],
      "name": "latestIndex",
      "outputs": [
        {
          "internalType": "uint256",
          "name": "",
          "type": "uint256"
        }
      ],
      "stateMutability": "view",
      "type": "function"
    },
    {
      "inputs": [],
      "name": "managerAddress",
      "outputs": [
        {
          "internalType": "address",
          "name": "",
          "type": "address"
        }
      ],
      "stateMutability": "view",
      "type": "function"
    },
    {
      "inputs": [
        {
          "internalType": "address",
          "name": "to",
          "type": "address"
        },
        {
          "components": [
            {
              "internalType": "string",
              "name": "name",
              "type": "string"
            },
            {
              "internalType": "uint256",
              "name": "gender",
              "type": "uint256"
            },
            {
              "internalType": "uint256",
              "name": "age",
              "type": "uint256"
            },
            {
              "internalType": "uint256",
              "name": "score",
              "type": "uint256"
            },
            {
              "internalType": "bytes",
              "name": "sensitiveInformation",
              "type": "bytes"
            }
          ],
          "internalType": "struct IPerson.PersonInfo",
          "name": "p",
          "type": "tuple"
        }
      ],
      "name": "mint",
      "outputs": [],
      "stateMutability": "nonpayable",
      "type": "function"
    },
    {
      "inputs": [],
      "name": "name",
      "outputs": [
        {
          "internalType": "string",
          "name": "",
          "type": "string"
        }
      ],
      "stateMutability": "view",
      "type": "function"
    },
    {
      "inputs": [
        {
          "internalType": "uint256",
          "name": "tokenId",
          "type": "uint256"
        }
      ],
      "name": "ownerOf",
      "outputs": [
        {
          "internalType": "address",
          "name": "",
          "type": "address"
        }
      ],
      "stateMutability": "view",
      "type": "function"
    },
    {
      "inputs": [
        {
          "internalType": "uint256",
          "name": "",
          "type": "uint256"
        }
      ],
      "name": "personInfo",
      "outputs": [
        {
          "internalType": "string",
          "name": "name",
          "type": "string"
        },
        {
          "internalType": "uint256",
          "name": "gender",
          "type": "uint256"
        },
        {
          "internalType": "uint256",
          "name": "age",
          "type": "uint256"
        },
        {
          "internalType": "uint256",
          "name": "score",
          "type": "uint256"
        },
        {
          "internalType": "bytes",
          "name": "sensitiveInformation",
          "type": "bytes"
        }
      ],
      "stateMutability": "view",
      "type": "function"
    },
    {
      "inputs": [
        {
          "internalType": "address",
          "name": "from",
          "type": "address"
        },
        {
          "internalType": "address",
          "name": "to",
          "type": "address"
        },
        {
          "internalType": "uint256",
          "name": "tokenId",
          "type": "uint256"
        }
      ],
      "name": "safeTransferFrom",
      "outputs": [],
      "stateMutability": "nonpayable",
      "type": "function"
    },
    {
      "inputs": [
        {
          "internalType": "address",
          "name": "from",
          "type": "address"
        },
        {
          "internalType": "address",
          "name": "to",
          "type": "address"
        },
        {
          "internalType": "uint256",
          "name": "tokenId",
          "type": "uint256"
        },
        {
          "internalType": "bytes",
          "name": "_data",
          "type": "bytes"
        }
      ],
      "name": "safeTransferFrom",
      "outputs": [],
      "stateMutability": "nonpayable",
      "type": "function"
    },
    {
      "inputs": [
        {
          "internalType": "address",
          "name": "operator",
          "type": "address"
        },
        {
          "internalType": "bool",
          "name": "approved",
          "type": "bool"
        }
      ],
      "name": "setApprovalForAll",
      "outputs": [],
      "stateMutability": "nonpayable",
      "type": "function"
    },
    {
      "inputs": [
        {
          "internalType": "uint256",
          "name": "tokenId",
          "type": "uint256"
        },
        {
          "internalType": "uint256",
          "name": "sId",
          "type": "uint256"
        },
        {
          "internalType": "uint256",
          "name": "score",
          "type": "uint256"
        }
      ],
      "name": "subtractScore",
      "outputs": [],
      "stateMutability": "nonpayable",
      "type": "function"
    },
    {
      "inputs": [
        {
          "internalType": "bytes4",
          "name": "interfaceId",
          "type": "bytes4"
        }
      ],
      "name": "supportsInterface",
      "outputs": [
        {
          "internalType": "bool",
          "name": "",
          "type": "bool"
        }
      ],
      "stateMutability": "view",
      "type": "function"
    },
    {
      "inputs": [],
      "name": "symbol",
      "outputs": [
        {
          "internalType": "string",
          "name": "",
          "type": "string"
        }
      ],
      "stateMutability": "view",
      "type": "function"
    },
    {
      "inputs": [
        {
          "internalType": "uint256",
          "name": "tokenId",
          "type": "uint256"
        }
      ],
      "name": "tokenURI",
      "outputs": [
        {
          "internalType": "string",
          "name": "",
          "type": "string"
        }
      ],
      "stateMutability": "view",
      "type": "function"
    },
    {
      "inputs": [
        {
          "internalType": "address",
          "name": "from",
          "type": "address"
        },
        {
          "internalType": "address",
          "name": "to",
          "type": "address"
        },
        {
          "internalType": "uint256",
          "name": "tokenId",
          "type": "uint256"
        }
      ],
      "name": "transferFrom",
      "outputs": [],
      "stateMutability": "nonpayable",
      "type": "function"
    }
  ],
  "transactionHash": "0xaef9b876d0ad43ce54e77959b193be94e905cc4505a62d85c45380dc2ed3c785",
  "args": [],
  "numDeployments": 2,
  "solcInputHash": "a847a234bd5c512773388987a990fbd7",
  "bytecode": "0x608060405234801561001057600080fd5b506124f0806100206000396000f3fe608060405234801561001057600080fd5b50600436106101825760003560e01c80636352211e116100d8578063a3fbbaae1161008c578063cf73a1bc11610066578063cf73a1bc1461032b578063d551c5e91461033e578063e985e9c51461035157600080fd5b8063a3fbbaae146102f2578063b88d4fde14610305578063c87b56dd1461031857600080fd5b80638f917719116100bd5780638f917719146102b357806395d89b41146102d7578063a22cb465146102df57600080fd5b80636352211e1461028d57806370a08231146102a057600080fd5b806323b872dd1161013a57806342842e0e1161011457806342842e0e146102505780634be21c8e14610263578063578f2aa01461027657600080fd5b806323b872dd14610217578063328a49801461022a5780633bee2fdb1461023d57600080fd5b8063077f224a1161016b578063077f224a146101c4578063081812fc146101d9578063095ea7b31461020457600080fd5b806301ffc9a71461018757806306fdde03146101af575b600080fd5b61019a610195366004611cdb565b61038d565b60405190151581526020015b60405180910390f35b6101b76103df565b6040516101a69190611d50565b6101d76101d2366004611e1b565b610471565b005b6101ec6101e7366004611e93565b610506565b6040516001600160a01b0390911681526020016101a6565b6101d7610212366004611eac565b6105a0565b6101d7610225366004611ed8565b6106b5565b6101d7610238366004611fc1565b61073c565b6101d761024b366004612011565b6108bf565b6101d761025e366004611ed8565b610a1c565b6101d761027136600461203d565b610a37565b61027f60975481565b6040519081526020016101a6565b6101ec61029b366004611e93565b610ba2565b61027f6102ae36600461206e565b610c2d565b6102c66102c1366004611e93565b610cc7565b6040516101a695949392919061208b565b6101b7610e05565b6101d76102ed3660046120ce565b610e14565b6101d761030036600461206e565b610e23565b6101d761031336600461210c565b610f3f565b6101b7610326366004611e93565b610fc7565b6098546101ec906001600160a01b031681565b6101d761034c366004612011565b6110e2565b61019a61035f366004612178565b6001600160a01b039182166000908152606a6020908152604080832093909416825291909152205460ff1690565b60006001600160e01b031982166380ac58cd60e01b14806103be57506001600160e01b03198216635b5e139f60e01b145b806103d957506301ffc9a760e01b6001600160e01b03198316145b92915050565b6060606580546103ee906121a6565b80601f016020809104026020016040519081016040528092919081815260200182805461041a906121a6565b80156104675780601f1061043c57610100808354040283529160200191610467565b820191906000526020600020905b81548152906001019060200180831161044a57829003601f168201915b5050505050905090565b600061047d60016111cd565b90508015610495576000805461ff0019166101001790555b61049f84846112e3565b609880546001600160a01b0319166001600160a01b0384161790558015610500576000805461ff0019169055604051600181527f7f26b83ff96e1f2b6a682f133852f6798a09c465da95921460cefb38474024989060200160405180910390a15b50505050565b6000818152606760205260408120546001600160a01b03166105845760405162461bcd60e51b815260206004820152602c60248201527f4552433732313a20617070726f76656420717565727920666f72206e6f6e657860448201526b34b9ba32b73a103a37b5b2b760a11b60648201526084015b60405180910390fd5b506000908152606960205260409020546001600160a01b031690565b60006105ab82610ba2565b9050806001600160a01b0316836001600160a01b0316036106185760405162461bcd60e51b815260206004820152602160248201527f4552433732313a20617070726f76616c20746f2063757272656e74206f776e656044820152603960f91b606482015260840161057b565b336001600160a01b03821614806106345750610634813361035f565b6106a65760405162461bcd60e51b815260206004820152603860248201527f4552433732313a20617070726f76652063616c6c6572206973206e6f74206f7760448201527f6e6572206e6f7220617070726f76656420666f7220616c6c0000000000000000606482015260840161057b565b6106b08383611358565b505050565b6106bf33826113c6565b6107315760405162461bcd60e51b815260206004820152603160248201527f4552433732313a207472616e736665722063616c6c6572206973206e6f74206f60448201527f776e6572206e6f7220617070726f766564000000000000000000000000000000606482015260840161057b565b6106b08383836114bd565b609860009054906101000a90046001600160a01b03166001600160a01b0316638da5cb5b6040518163ffffffff1660e01b8152600401602060405180830381865afa15801561078f573d6000803e3d6000fd5b505050506040513d601f19601f820116820180604052508101906107b391906121e0565b6001600160a01b0316336001600160a01b0316146108045760405162461bcd60e51b815260206004820152600e60248201526d24b73b30b634b21039b2b73232b960911b604482015260640161057b565b6097805490600061081483612213565b909155505060975460009081526099602052604090208151829190819061083b908261227a565b506020820151600182015560408201516002820155606082015160038201556080820151600482019061086e908261227a565b5090505061087e8260975461167c565b7ff721413e75258f936d1753f18e36d766b01427819f8c2a6c6db28ebe5ac2cbae81836097546040516108b39392919061233a565b60405180910390a15050565b609860009054906101000a90046001600160a01b03166001600160a01b0316638da5cb5b6040518163ffffffff1660e01b8152600401602060405180830381865afa158015610912573d6000803e3d6000fd5b505050506040513d601f19601f8201168201806040525081019061093691906121e0565b6001600160a01b0316336001600160a01b0316146109875760405162461bcd60e51b815260206004820152600e60248201526d24b73b30b634b21039b2b73232b960911b604482015260640161057b565b6000838152609960205260408120600381018054919284926109aa9084906123af565b90915550600090506109bb85610ba2565b6003830154604080516001600160a01b03841681526020810189905290810187905260608101919091529091507f242c2638a69f7dfe426cbfc29a792446b0a3cbba81439b54976bf37aac4cd4589060800160405180910390a15050505050565b6106b083838360405180602001604052806000815250610f3f565b609860009054906101000a90046001600160a01b03166001600160a01b0316638da5cb5b6040518163ffffffff1660e01b8152600401602060405180830381865afa158015610a8a573d6000803e3d6000fd5b505050506040513d601f19601f82011682018060405250810190610aae91906121e0565b6001600160a01b0316336001600160a01b031614610aff5760405162461bcd60e51b815260206004820152600e60248201526d24b73b30b634b21039b2b73232b960911b604482015260640161057b565b600082815260996020526040902081518291908190610b1e908261227a565b5060208201516001820155604082015160028201556060820151600382015560808201516004820190610b51908261227a565b509050506000610b6083610ba2565b90507f9fecefdf304b34cf5b8d80a31d648072807b1d9619fc0dbbde628b04427d256a828285604051610b959392919061233a565b60405180910390a1505050565b6000818152606760205260408120546001600160a01b0316806103d95760405162461bcd60e51b815260206004820152602960248201527f4552433732313a206f776e657220717565727920666f72206e6f6e657869737460448201527f656e7420746f6b656e0000000000000000000000000000000000000000000000606482015260840161057b565b60006001600160a01b038216610cab5760405162461bcd60e51b815260206004820152602a60248201527f4552433732313a2062616c616e636520717565727920666f7220746865207a6560448201527f726f206164647265737300000000000000000000000000000000000000000000606482015260840161057b565b506001600160a01b031660009081526068602052604090205490565b609960205260009081526040902080548190610ce2906121a6565b80601f0160208091040260200160405190810160405280929190818152602001828054610d0e906121a6565b8015610d5b5780601f10610d3057610100808354040283529160200191610d5b565b820191906000526020600020905b815481529060010190602001808311610d3e57829003601f168201915b505050505090806001015490806002015490806003015490806004018054610d82906121a6565b80601f0160208091040260200160405190810160405280929190818152602001828054610dae906121a6565b8015610dfb5780601f10610dd057610100808354040283529160200191610dfb565b820191906000526020600020905b815481529060010190602001808311610dde57829003601f168201915b5050505050905085565b6060606680546103ee906121a6565b610e1f3383836117ca565b5050565b609860009054906101000a90046001600160a01b03166001600160a01b0316638da5cb5b6040518163ffffffff1660e01b8152600401602060405180830381865afa158015610e76573d6000803e3d6000fd5b505050506040513d601f19601f82011682018060405250810190610e9a91906121e0565b6001600160a01b0316336001600160a01b031614610eeb5760405162461bcd60e51b815260206004820152600e60248201526d24b73b30b634b21039b2b73232b960911b604482015260640161057b565b609880546001600160a01b0319166001600160a01b0383169081179091556040519081527f1d6ff4ed7d3f88a1e772b88c015ffdd0e3a6b0891780d6742b969cc1325f03349060200160405180910390a150565b610f4933836113c6565b610fbb5760405162461bcd60e51b815260206004820152603160248201527f4552433732313a207472616e736665722063616c6c6572206973206e6f74206f60448201527f776e6572206e6f7220617070726f766564000000000000000000000000000000606482015260840161057b565b61050084848484611898565b6000818152606760205260409020546060906001600160a01b03166110545760405162461bcd60e51b815260206004820152602f60248201527f4552433732314d657461646174613a2055524920717565727920666f72206e6f60448201527f6e6578697374656e7420746f6b656e0000000000000000000000000000000000606482015260840161057b565b600061109060408051808201909152601d81527f687474703a2f2f6c6f63616c686f73743a333030302f706572736f6e2f000000602082015290565b905060008151116110b057604051806020016040528060008152506110db565b806110ba84611921565b6040516020016110cb9291906123c6565b6040516020818303038152906040525b9392505050565b609860009054906101000a90046001600160a01b03166001600160a01b0316638da5cb5b6040518163ffffffff1660e01b8152600401602060405180830381865afa158015611135573d6000803e3d6000fd5b505050506040513d601f19601f8201168201806040525081019061115991906121e0565b6001600160a01b0316336001600160a01b0316146111aa5760405162461bcd60e51b815260206004820152600e60248201526d24b73b30b634b21039b2b73232b960911b604482015260640161057b565b6000838152609960205260408120600381018054919284926109aa9084906123f5565b60008054610100900460ff161561125b578160ff1660011480156111f05750303b155b6112535760405162461bcd60e51b815260206004820152602e60248201527f496e697469616c697a61626c653a20636f6e747261637420697320616c72656160448201526d191e481a5b9a5d1a585b1a5e995960921b606482015260840161057b565b506000919050565b60005460ff8084169116106112c95760405162461bcd60e51b815260206004820152602e60248201527f496e697469616c697a61626c653a20636f6e747261637420697320616c72656160448201526d191e481a5b9a5d1a585b1a5e995960921b606482015260840161057b565b506000805460ff191660ff92909216919091179055600190565b600054610100900460ff1661134e5760405162461bcd60e51b815260206004820152602b60248201527f496e697469616c697a61626c653a20636f6e7472616374206973206e6f74206960448201526a6e697469616c697a696e6760a81b606482015260840161057b565b610e1f8282611a3a565b600081815260696020526040902080546001600160a01b0319166001600160a01b038416908117909155819061138d82610ba2565b6001600160a01b03167f8c5be1e5ebec7d5bd14f71427d1e84f3dd0314c0f7b2291e5b200ac8c7c3b92560405160405180910390a45050565b6000818152606760205260408120546001600160a01b031661143f5760405162461bcd60e51b815260206004820152602c60248201527f4552433732313a206f70657261746f7220717565727920666f72206e6f6e657860448201526b34b9ba32b73a103a37b5b2b760a11b606482015260840161057b565b600061144a83610ba2565b9050806001600160a01b0316846001600160a01b0316148061149157506001600160a01b038082166000908152606a602090815260408083209388168352929052205460ff165b806114b55750836001600160a01b03166114aa84610506565b6001600160a01b0316145b949350505050565b826001600160a01b03166114d082610ba2565b6001600160a01b03161461154c5760405162461bcd60e51b815260206004820152602560248201527f4552433732313a207472616e736665722066726f6d20696e636f72726563742060448201527f6f776e6572000000000000000000000000000000000000000000000000000000606482015260840161057b565b6001600160a01b0382166115ae5760405162461bcd60e51b8152602060048201526024808201527f4552433732313a207472616e7366657220746f20746865207a65726f206164646044820152637265737360e01b606482015260840161057b565b6115b9838383611abe565b6115c4600082611358565b6001600160a01b03831660009081526068602052604081208054600192906115ed9084906123af565b90915550506001600160a01b038216600090815260686020526040812080546001929061161b9084906123f5565b909155505060008181526067602052604080822080546001600160a01b0319166001600160a01b0386811691821790925591518493918716917fddf252ad1be2c89b69c2b068fc378daa952ba7f163c4a11628f55a4df523b3ef91a4505050565b6001600160a01b0382166116d25760405162461bcd60e51b815260206004820181905260248201527f4552433732313a206d696e7420746f20746865207a65726f2061646472657373604482015260640161057b565b6000818152606760205260409020546001600160a01b0316156117375760405162461bcd60e51b815260206004820152601c60248201527f4552433732313a20746f6b656e20616c7265616479206d696e74656400000000604482015260640161057b565b61174360008383611abe565b6001600160a01b038216600090815260686020526040812080546001929061176c9084906123f5565b909155505060008181526067602052604080822080546001600160a01b0319166001600160a01b03861690811790915590518392907fddf252ad1be2c89b69c2b068fc378daa952ba7f163c4a11628f55a4df523b3ef908290a45050565b816001600160a01b0316836001600160a01b03160361182b5760405162461bcd60e51b815260206004820152601960248201527f4552433732313a20617070726f766520746f2063616c6c657200000000000000604482015260640161057b565b6001600160a01b038381166000818152606a6020908152604080832094871680845294825291829020805460ff191686151590811790915591519182527f17307eab39ab6107e8899845ad3d59bd9653f200f220920489ca2b5937696c31910160405180910390a3505050565b6118a38484846114bd565b6118af84848484611b6b565b6105005760405162461bcd60e51b815260206004820152603260248201527f4552433732313a207472616e7366657220746f206e6f6e20455243373231526560448201527f63656976657220696d706c656d656e7465720000000000000000000000000000606482015260840161057b565b6060816000036119485750506040805180820190915260018152600360fc1b602082015290565b8160005b8115611972578061195c81612213565b915061196b9050600a83612423565b915061194c565b60008167ffffffffffffffff81111561198d5761198d611d63565b6040519080825280601f01601f1916602001820160405280156119b7576020820181803683370190505b5090505b84156114b5576119cc6001836123af565b91506119d9600a86612437565b6119e49060306123f5565b60f81b8183815181106119f9576119f961244b565b60200101907effffffffffffffffffffffffffffffffffffffffffffffffffffffffffffff1916908160001a905350611a33600a86612423565b94506119bb565b600054610100900460ff16611aa55760405162461bcd60e51b815260206004820152602b60248201527f496e697469616c697a61626c653a20636f6e7472616374206973206e6f74206960448201526a6e697469616c697a696e6760a81b606482015260840161057b565b6065611ab1838261227a565b5060666106b0828261227a565b6001600160a01b03831615611b155760405162461bcd60e51b815260206004820152600f60248201527f43616e6e6f74207472616e736665720000000000000000000000000000000000604482015260640161057b565b611b1e82610c2d565b156106b05760405162461bcd60e51b815260206004820152601960248201527f456163682075736572206d75737420686176652031204e465400000000000000604482015260640161057b565b60006001600160a01b0384163b15611cb757604051630a85bd0160e11b81526001600160a01b0385169063150b7a0290611baf903390899088908890600401612461565b6020604051808303816000875af1925050508015611bea575060408051601f3d908101601f19168201909252611be79181019061249d565b60015b611c9d573d808015611c18576040519150601f19603f3d011682016040523d82523d6000602084013e611c1d565b606091505b508051600003611c955760405162461bcd60e51b815260206004820152603260248201527f4552433732313a207472616e7366657220746f206e6f6e20455243373231526560448201527f63656976657220696d706c656d656e7465720000000000000000000000000000606482015260840161057b565b805181602001fd5b6001600160e01b031916630a85bd0160e11b1490506114b5565b506001949350505050565b6001600160e01b031981168114611cd857600080fd5b50565b600060208284031215611ced57600080fd5b81356110db81611cc2565b60005b83811015611d13578181015183820152602001611cfb565b838111156105005750506000910152565b60008151808452611d3c816020860160208601611cf8565b601f01601f19169290920160200192915050565b6020815260006110db6020830184611d24565b634e487b7160e01b600052604160045260246000fd5b600082601f830112611d8a57600080fd5b813567ffffffffffffffff80821115611da557611da5611d63565b604051601f8301601f19908116603f01168101908282118183101715611dcd57611dcd611d63565b81604052838152866020858801011115611de657600080fd5b836020870160208301376000602085830101528094505050505092915050565b6001600160a01b0381168114611cd857600080fd5b600080600060608486031215611e3057600080fd5b833567ffffffffffffffff80821115611e4857600080fd5b611e5487838801611d79565b94506020860135915080821115611e6a57600080fd5b50611e7786828701611d79565b9250506040840135611e8881611e06565b809150509250925092565b600060208284031215611ea557600080fd5b5035919050565b60008060408385031215611ebf57600080fd5b8235611eca81611e06565b946020939093013593505050565b600080600060608486031215611eed57600080fd5b8335611ef881611e06565b92506020840135611f0881611e06565b929592945050506040919091013590565b600060a08284031215611f2b57600080fd5b60405160a0810167ffffffffffffffff8282108183111715611f4f57611f4f611d63565b816040528293508435915080821115611f6757600080fd5b611f7386838701611d79565b83526020850135602084015260408501356040840152606085013560608401526080850135915080821115611fa757600080fd5b50611fb485828601611d79565b6080830152505092915050565b60008060408385031215611fd457600080fd5b8235611fdf81611e06565b9150602083013567ffffffffffffffff811115611ffb57600080fd5b61200785828601611f19565b9150509250929050565b60008060006060848603121561202657600080fd5b505081359360208301359350604090920135919050565b6000806040838503121561205057600080fd5b82359150602083013567ffffffffffffffff811115611ffb57600080fd5b60006020828403121561208057600080fd5b81356110db81611e06565b60a08152600061209e60a0830188611d24565b86602084015285604084015284606084015282810360808401526120c28185611d24565b98975050505050505050565b600080604083850312156120e157600080fd5b82356120ec81611e06565b91506020830135801515811461210157600080fd5b809150509250929050565b6000806000806080858703121561212257600080fd5b843561212d81611e06565b9350602085013561213d81611e06565b925060408501359150606085013567ffffffffffffffff81111561216057600080fd5b61216c87828801611d79565b91505092959194509250565b6000806040838503121561218b57600080fd5b823561219681611e06565b9150602083013561210181611e06565b600181811c908216806121ba57607f821691505b6020821081036121da57634e487b7160e01b600052602260045260246000fd5b50919050565b6000602082840312156121f257600080fd5b81516110db81611e06565b634e487b7160e01b600052601160045260246000fd5b600060018201612225576122256121fd565b5060010190565b601f8211156106b057600081815260208120601f850160051c810160208610156122535750805b601f850160051c820191505b818110156122725782815560010161225f565b505050505050565b815167ffffffffffffffff81111561229457612294611d63565b6122a8816122a284546121a6565b8461222c565b602080601f8311600181146122dd57600084156122c55750858301515b600019600386901b1c1916600185901b178555612272565b600085815260208120601f198616915b8281101561230c578886015182559484019460019091019084016122ed565b508582101561232a5787850151600019600388901b60f8161c191681555b5050505050600190811b01905550565b606081526000845160a06060840152612357610100840182611d24565b905060208601516080840152604086015160a0840152606086015160c08401526080860151605f198483030160e08501526123928282611d24565b6001600160a01b0396909616602085015250505060400152919050565b6000828210156123c1576123c16121fd565b500390565b600083516123d8818460208801611cf8565b8351908301906123ec818360208801611cf8565b01949350505050565b60008219821115612408576124086121fd565b500190565b634e487b7160e01b600052601260045260246000fd5b6000826124325761243261240d565b500490565b6000826124465761244661240d565b500690565b634e487b7160e01b600052603260045260246000fd5b60006001600160a01b038087168352808616602084015250836040830152608060608301526124936080830184611d24565b9695505050505050565b6000602082840312156124af57600080fd5b81516110db81611cc256fea26469706673582212201751b35b61c7617c67e51ce5347f8799b9f916a60593836bba0179e952a2b6d264736f6c634300080f0033",
  "devdoc": {
    "kind": "dev",
    "methods": {
      "approve(address,uint256)": {
        "details": "See {IERC721-approve}."
      },
      "balanceOf(address)": {
        "details": "See {IERC721-balanceOf}."
      },
      "getApproved(uint256)": {
        "details": "See {IERC721-getApproved}."
      },
      "isApprovedForAll(address,address)": {
        "details": "See {IERC721-isApprovedForAll}."
      },
      "name()": {
        "details": "See {IERC721Metadata-name}."
      },
      "ownerOf(uint256)": {
        "details": "See {IERC721-ownerOf}."
      },
      "safeTransferFrom(address,address,uint256)": {
        "details": "See {IERC721-safeTransferFrom}."
      },
      "safeTransferFrom(address,address,uint256,bytes)": {
        "details": "See {IERC721-safeTransferFrom}."
      },
      "setApprovalForAll(address,bool)": {
        "details": "See {IERC721-setApprovalForAll}."
      },
      "supportsInterface(bytes4)": {
        "details": "See {IERC165-supportsInterface}."
      },
      "symbol()": {
        "details": "See {IERC721Metadata-symbol}."
      },
      "tokenURI(uint256)": {
        "details": "See {IERC721Metadata-tokenURI}."
      },
      "transferFrom(address,address,uint256)": {
        "details": "See {IERC721-transferFrom}."
      }
    },
    "version": 1
  },
  "userdoc": {
    "kind": "user",
    "methods": {},
    "version": 1
  },
  "storageLayout": {
    "storage": [
      {
        "astId": 130,
        "contract": "contracts/Person.sol:Person",
        "label": "_initialized",
        "offset": 0,
        "slot": "0",
        "type": "t_uint8"
      },
      {
        "astId": 133,
        "contract": "contracts/Person.sol:Person",
        "label": "_initializing",
        "offset": 1,
        "slot": "0",
        "type": "t_bool"
      },
      {
        "astId": 1601,
        "contract": "contracts/Person.sol:Person",
        "label": "__gap",
        "offset": 0,
        "slot": "1",
        "type": "t_array(t_uint256)50_storage"
      },
      {
        "astId": 1848,
        "contract": "contracts/Person.sol:Person",
        "label": "__gap",
        "offset": 0,
        "slot": "51",
        "type": "t_array(t_uint256)50_storage"
      },
      {
        "astId": 294,
        "contract": "contracts/Person.sol:Person",
        "label": "_name",
        "offset": 0,
        "slot": "101",
        "type": "t_string_storage"
      },
      {
        "astId": 296,
        "contract": "contracts/Person.sol:Person",
        "label": "_symbol",
        "offset": 0,
        "slot": "102",
        "type": "t_string_storage"
      },
      {
        "astId": 300,
        "contract": "contracts/Person.sol:Person",
        "label": "_owners",
        "offset": 0,
        "slot": "103",
        "type": "t_mapping(t_uint256,t_address)"
      },
      {
        "astId": 304,
        "contract": "contracts/Person.sol:Person",
        "label": "_balances",
        "offset": 0,
        "slot": "104",
        "type": "t_mapping(t_address,t_uint256)"
      },
      {
        "astId": 308,
        "contract": "contracts/Person.sol:Person",
        "label": "_tokenApprovals",
        "offset": 0,
        "slot": "105",
        "type": "t_mapping(t_uint256,t_address)"
      },
      {
        "astId": 314,
        "contract": "contracts/Person.sol:Person",
        "label": "_operatorApprovals",
        "offset": 0,
        "slot": "106",
        "type": "t_mapping(t_address,t_mapping(t_address,t_bool))"
      },
      {
        "astId": 1155,
        "contract": "contracts/Person.sol:Person",
        "label": "__gap",
        "offset": 0,
        "slot": "107",
        "type": "t_array(t_uint256)44_storage"
      },
      {
        "astId": 2051,
        "contract": "contracts/Person.sol:Person",
        "label": "latestIndex",
        "offset": 0,
        "slot": "151",
        "type": "t_uint256"
      },
      {
        "astId": 2053,
        "contract": "contracts/Person.sol:Person",
        "label": "managerAddress",
        "offset": 0,
        "slot": "152",
        "type": "t_address"
      },
      {
        "astId": 2058,
        "contract": "contracts/Person.sol:Person",
        "label": "personInfo",
        "offset": 0,
        "slot": "153",
        "type": "t_mapping(t_uint256,t_struct(PersonInfo)2371_storage)"
      }
    ],
    "types": {
      "t_address": {
        "encoding": "inplace",
        "label": "address",
        "numberOfBytes": "20"
      },
      "t_array(t_uint256)44_storage": {
        "base": "t_uint256",
        "encoding": "inplace",
        "label": "uint256[44]",
        "numberOfBytes": "1408"
      },
      "t_array(t_uint256)50_storage": {
        "base": "t_uint256",
        "encoding": "inplace",
        "label": "uint256[50]",
        "numberOfBytes": "1600"
      },
      "t_bool": {
        "encoding": "inplace",
        "label": "bool",
        "numberOfBytes": "1"
      },
      "t_bytes_storage": {
        "encoding": "bytes",
        "label": "bytes",
        "numberOfBytes": "32"
      },
      "t_mapping(t_address,t_bool)": {
        "encoding": "mapping",
        "key": "t_address",
        "label": "mapping(address => bool)",
        "numberOfBytes": "32",
        "value": "t_bool"
      },
      "t_mapping(t_address,t_mapping(t_address,t_bool))": {
        "encoding": "mapping",
        "key": "t_address",
        "label": "mapping(address => mapping(address => bool))",
        "numberOfBytes": "32",
        "value": "t_mapping(t_address,t_bool)"
      },
      "t_mapping(t_address,t_uint256)": {
        "encoding": "mapping",
        "key": "t_address",
        "label": "mapping(address => uint256)",
        "numberOfBytes": "32",
        "value": "t_uint256"
      },
      "t_mapping(t_uint256,t_address)": {
        "encoding": "mapping",
        "key": "t_uint256",
        "label": "mapping(uint256 => address)",
        "numberOfBytes": "32",
        "value": "t_address"
      },
      "t_mapping(t_uint256,t_struct(PersonInfo)2371_storage)": {
        "encoding": "mapping",
        "key": "t_uint256",
        "label": "mapping(uint256 => struct IPerson.PersonInfo)",
        "numberOfBytes": "32",
        "value": "t_struct(PersonInfo)2371_storage"
      },
      "t_string_storage": {
        "encoding": "bytes",
        "label": "string",
        "numberOfBytes": "32"
      },
      "t_struct(PersonInfo)2371_storage": {
        "encoding": "inplace",
        "label": "struct IPerson.PersonInfo",
        "members": [
          {
            "astId": 2362,
            "contract": "contracts/Person.sol:Person",
            "label": "name",
            "offset": 0,
            "slot": "0",
            "type": "t_string_storage"
          },
          {
            "astId": 2364,
            "contract": "contracts/Person.sol:Person",
            "label": "gender",
            "offset": 0,
            "slot": "1",
            "type": "t_uint256"
          },
          {
            "astId": 2366,
            "contract": "contracts/Person.sol:Person",
            "label": "age",
            "offset": 0,
            "slot": "2",
            "type": "t_uint256"
          },
          {
            "astId": 2368,
            "contract": "contracts/Person.sol:Person",
            "label": "score",
            "offset": 0,
            "slot": "3",
            "type": "t_uint256"
          },
          {
            "astId": 2370,
            "contract": "contracts/Person.sol:Person",
            "label": "sensitiveInformation",
            "offset": 0,
            "slot": "4",
            "type": "t_bytes_storage"
          }
        ],
        "numberOfBytes": "160"
      },
      "t_uint256": {
        "encoding": "inplace",
        "label": "uint256",
        "numberOfBytes": "32"
      },
      "t_uint8": {
        "encoding": "inplace",
        "label": "uint8",
        "numberOfBytes": "1"
      }
    }
  }
}